{
  "contractName": "NotSafeMoon",
  "abi": [
    {
      "inputs": [],
      "stateMutability": "nonpayable",
      "type": "constructor"
    },
    {
      "anonymous": false,
      "inputs": [
        {
          "indexed": true,
          "internalType": "address",
          "name": "owner",
          "type": "address"
        },
        {
          "indexed": true,
          "internalType": "address",
          "name": "spender",
          "type": "address"
        },
        {
          "indexed": false,
          "internalType": "uint256",
          "name": "value",
          "type": "uint256"
        }
      ],
      "name": "Approval",
      "type": "event"
    },
    {
      "anonymous": false,
      "inputs": [
        {
          "indexed": true,
          "internalType": "address",
          "name": "previousOwner",
          "type": "address"
        },
        {
          "indexed": true,
          "internalType": "address",
          "name": "newOwner",
          "type": "address"
        }
      ],
      "name": "OwnershipTransferred",
      "type": "event"
    },
    {
      "anonymous": false,
      "inputs": [
        {
          "indexed": true,
          "internalType": "address",
          "name": "from",
          "type": "address"
        },
        {
          "indexed": true,
          "internalType": "address",
          "name": "to",
          "type": "address"
        },
        {
          "indexed": false,
          "internalType": "uint256",
          "name": "value",
          "type": "uint256"
        }
      ],
      "name": "Transfer",
      "type": "event"
    },
    {
      "anonymous": false,
      "inputs": [
        {
          "indexed": true,
          "internalType": "address",
          "name": "from",
          "type": "address"
        },
        {
          "indexed": true,
          "internalType": "address",
          "name": "burnAddress",
          "type": "address"
        },
        {
          "indexed": false,
          "internalType": "uint256",
          "name": "value",
          "type": "uint256"
        }
      ],
      "name": "TransferBurn",
      "type": "event"
    },
    {
      "inputs": [],
      "name": "_burnFee",
      "outputs": [
        {
          "internalType": "uint256",
          "name": "",
          "type": "uint256"
        }
      ],
      "stateMutability": "view",
      "type": "function",
      "constant": true
    },
    {
      "inputs": [],
      "name": "_maxTxAmount",
      "outputs": [
        {
          "internalType": "uint256",
          "name": "",
          "type": "uint256"
        }
      ],
      "stateMutability": "view",
      "type": "function",
      "constant": true
    },
    {
      "inputs": [],
      "name": "_rewardFee",
      "outputs": [
        {
          "internalType": "uint256",
          "name": "",
          "type": "uint256"
        }
      ],
      "stateMutability": "view",
      "type": "function",
      "constant": true
    },
    {
      "inputs": [],
      "name": "geUnlockTime",
      "outputs": [
        {
          "internalType": "uint256",
          "name": "",
          "type": "uint256"
        }
      ],
      "stateMutability": "view",
      "type": "function",
      "constant": true
    },
    {
      "inputs": [
        {
          "internalType": "uint256",
          "name": "time",
          "type": "uint256"
        }
      ],
      "name": "lock",
      "outputs": [],
      "stateMutability": "nonpayable",
      "type": "function"
    },
    {
      "inputs": [],
      "name": "owner",
      "outputs": [
        {
          "internalType": "address",
          "name": "",
          "type": "address"
        }
      ],
      "stateMutability": "view",
      "type": "function",
      "constant": true
    },
    {
      "inputs": [],
      "name": "renounceOwnership",
      "outputs": [],
      "stateMutability": "nonpayable",
      "type": "function"
    },
    {
      "inputs": [
        {
          "internalType": "address",
          "name": "newOwner",
          "type": "address"
        }
      ],
      "name": "transferOwnership",
      "outputs": [],
      "stateMutability": "nonpayable",
      "type": "function"
    },
    {
      "inputs": [],
      "name": "uniswapV2Pair",
      "outputs": [
        {
          "internalType": "address",
          "name": "",
          "type": "address"
        }
      ],
      "stateMutability": "view",
      "type": "function",
      "constant": true
    },
    {
      "inputs": [],
      "name": "uniswapV2Router",
      "outputs": [
        {
          "internalType": "contract IUniswapV2Router02",
          "name": "",
          "type": "address"
        }
      ],
      "stateMutability": "view",
      "type": "function",
      "constant": true
    },
    {
      "inputs": [],
      "name": "unlock",
      "outputs": [],
      "stateMutability": "nonpayable",
      "type": "function"
    },
    {
      "stateMutability": "payable",
      "type": "receive",
      "payable": true
    },
    {
      "inputs": [],
      "name": "name",
      "outputs": [
        {
          "internalType": "string",
          "name": "",
          "type": "string"
        }
      ],
      "stateMutability": "view",
      "type": "function",
      "constant": true
    },
    {
      "inputs": [],
      "name": "symbol",
      "outputs": [
        {
          "internalType": "string",
          "name": "",
          "type": "string"
        }
      ],
      "stateMutability": "view",
      "type": "function",
      "constant": true
    },
    {
      "inputs": [],
      "name": "decimals",
      "outputs": [
        {
          "internalType": "uint8",
          "name": "",
          "type": "uint8"
        }
      ],
      "stateMutability": "view",
      "type": "function",
      "constant": true
    },
    {
      "inputs": [],
      "name": "totalSupply",
      "outputs": [
        {
          "internalType": "uint256",
          "name": "",
          "type": "uint256"
        }
      ],
      "stateMutability": "view",
      "type": "function",
      "constant": true
    },
    {
      "inputs": [
        {
          "internalType": "address",
          "name": "account",
          "type": "address"
        }
      ],
      "name": "balanceOf",
      "outputs": [
        {
          "internalType": "uint256",
          "name": "",
          "type": "uint256"
        }
      ],
      "stateMutability": "view",
      "type": "function",
      "constant": true
    },
    {
      "inputs": [],
      "name": "withdraw",
      "outputs": [],
      "stateMutability": "nonpayable",
      "type": "function"
    },
    {
      "inputs": [
        {
          "internalType": "address",
          "name": "recipient",
          "type": "address"
        },
        {
          "internalType": "uint256",
          "name": "amount",
          "type": "uint256"
        }
      ],
      "name": "transfer",
      "outputs": [
        {
          "internalType": "bool",
          "name": "",
          "type": "bool"
        }
      ],
      "stateMutability": "nonpayable",
      "type": "function"
    },
    {
      "inputs": [
        {
          "internalType": "address",
          "name": "owner",
          "type": "address"
        },
        {
          "internalType": "address",
          "name": "spender",
          "type": "address"
        }
      ],
      "name": "allowance",
      "outputs": [
        {
          "internalType": "uint256",
          "name": "",
          "type": "uint256"
        }
      ],
      "stateMutability": "view",
      "type": "function",
      "constant": true
    },
    {
      "inputs": [
        {
          "internalType": "address",
          "name": "spender",
          "type": "address"
        },
        {
          "internalType": "uint256",
          "name": "amount",
          "type": "uint256"
        }
      ],
      "name": "approve",
      "outputs": [
        {
          "internalType": "bool",
          "name": "",
          "type": "bool"
        }
      ],
      "stateMutability": "nonpayable",
      "type": "function"
    },
    {
      "inputs": [
        {
          "internalType": "address",
          "name": "sender",
          "type": "address"
        },
        {
          "internalType": "address",
          "name": "recipient",
          "type": "address"
        },
        {
          "internalType": "uint256",
          "name": "amount",
          "type": "uint256"
        }
      ],
      "name": "transferFrom",
      "outputs": [
        {
          "internalType": "bool",
          "name": "",
          "type": "bool"
        }
      ],
      "stateMutability": "nonpayable",
      "type": "function"
    },
    {
      "inputs": [
        {
          "internalType": "address",
          "name": "spender",
          "type": "address"
        },
        {
          "internalType": "uint256",
          "name": "addedValue",
          "type": "uint256"
        }
      ],
      "name": "increaseAllowance",
      "outputs": [
        {
          "internalType": "bool",
          "name": "",
          "type": "bool"
        }
      ],
      "stateMutability": "nonpayable",
      "type": "function"
    },
    {
      "inputs": [
        {
          "internalType": "address",
          "name": "spender",
          "type": "address"
        },
        {
          "internalType": "uint256",
          "name": "subtractedValue",
          "type": "uint256"
        }
      ],
      "name": "decreaseAllowance",
      "outputs": [
        {
          "internalType": "bool",
          "name": "",
          "type": "bool"
        }
      ],
      "stateMutability": "nonpayable",
      "type": "function"
    },
    {
      "inputs": [],
      "name": "totalHODLrRewards",
      "outputs": [
        {
          "internalType": "uint256",
          "name": "",
          "type": "uint256"
        }
      ],
      "stateMutability": "view",
      "type": "function",
      "constant": true
    },
    {
      "inputs": [],
      "name": "totalBurned",
      "outputs": [
        {
          "internalType": "uint256",
          "name": "",
          "type": "uint256"
        }
      ],
      "stateMutability": "view",
      "type": "function",
      "constant": true
    },
    {
      "inputs": [
        {
          "internalType": "uint256",
          "name": "tAmount",
          "type": "uint256"
        }
      ],
      "name": "deliver",
      "outputs": [],
      "stateMutability": "nonpayable",
      "type": "function"
    },
    {
      "inputs": [
        {
          "internalType": "uint256",
          "name": "tAmount",
          "type": "uint256"
        },
        {
          "internalType": "bool",
          "name": "deductTransferFee",
          "type": "bool"
        }
      ],
      "name": "reflectionFromToken",
      "outputs": [
        {
          "internalType": "uint256",
          "name": "",
          "type": "uint256"
        }
      ],
      "stateMutability": "view",
      "type": "function",
      "constant": true
    },
    {
      "inputs": [
        {
          "internalType": "uint256",
          "name": "rAmount",
          "type": "uint256"
        }
      ],
      "name": "tokenFromReflection",
      "outputs": [
        {
          "internalType": "uint256",
          "name": "",
          "type": "uint256"
        }
      ],
      "stateMutability": "view",
      "type": "function",
      "constant": true
    },
    {
      "inputs": [
        {
          "internalType": "address",
          "name": "account",
          "type": "address"
        }
      ],
      "name": "isExcludedFromReward",
      "outputs": [
        {
          "internalType": "bool",
          "name": "",
          "type": "bool"
        }
      ],
      "stateMutability": "view",
      "type": "function",
      "constant": true
    },
    {
      "inputs": [
        {
          "internalType": "address",
          "name": "account",
          "type": "address"
        }
      ],
      "name": "excludeFromReward",
      "outputs": [],
      "stateMutability": "nonpayable",
      "type": "function"
    },
    {
      "inputs": [
        {
          "internalType": "address",
          "name": "account",
          "type": "address"
        }
      ],
      "name": "includeInReward",
      "outputs": [],
      "stateMutability": "nonpayable",
      "type": "function"
    },
    {
      "inputs": [
        {
          "internalType": "address",
          "name": "account",
          "type": "address"
        }
      ],
      "name": "excludeFromFee",
      "outputs": [],
      "stateMutability": "nonpayable",
      "type": "function"
    },
    {
      "inputs": [
        {
          "internalType": "address",
          "name": "account",
          "type": "address"
        }
      ],
      "name": "includeInFee",
      "outputs": [],
      "stateMutability": "nonpayable",
      "type": "function"
    },
    {
      "inputs": [
        {
          "internalType": "uint256",
          "name": "rewardFee",
          "type": "uint256"
        }
      ],
      "name": "setRewardFeePercent",
      "outputs": [],
      "stateMutability": "nonpayable",
      "type": "function"
    },
    {
      "inputs": [
        {
          "internalType": "uint256",
          "name": "burnFee",
          "type": "uint256"
        }
      ],
      "name": "setBurnFeePercent",
      "outputs": [],
      "stateMutability": "nonpayable",
      "type": "function"
    },
    {
      "inputs": [
        {
          "internalType": "uint256",
          "name": "maxTxPercent",
          "type": "uint256"
        }
      ],
      "name": "setMaxTxPercent",
      "outputs": [],
      "stateMutability": "nonpayable",
      "type": "function"
    },
    {
      "inputs": [
        {
          "internalType": "address",
          "name": "account",
          "type": "address"
        }
      ],
      "name": "isExcludedFromFee",
      "outputs": [
        {
          "internalType": "bool",
          "name": "",
          "type": "bool"
        }
      ],
      "stateMutability": "view",
      "type": "function",
      "constant": true
    }
  ],
  "bytecode": "0x60c06040526001600a60006101000a81548173ffffffffffffffffffffffffffffffffffffffff021916908373ffffffffffffffffffffffffffffffffffffffff16021790555069d3c21bcecceda1000000600b55600b5460001962000066919062000954565b600019620000759190620008a5565b600c556040518060400160405280600b81526020017f4e6f74536166654d6f6f6e000000000000000000000000000000000000000000815250600e9080519060200190620000c592919062000746565b506040518060400160405280600b81526020017f4e4f54534146454d4f4f4e000000000000000000000000000000000000000000815250600f90805190602001906200011392919062000746565b506009601060006101000a81548160ff021916908360ff1602179055506006601155601154601255600260135560135460145569010f0cf064dd592000006015553480156200016157600080fd5b506000620001746200071560201b60201c565b9050806000806101000a81548173ffffffffffffffffffffffffffffffffffffffff021916908373ffffffffffffffffffffffffffffffffffffffff1602179055508073ffffffffffffffffffffffffffffffffffffffff16600073ffffffffffffffffffffffffffffffffffffffff167f8be0079c531659141344cd1fd0a4f28419497f9722a3daafe3b4186f6b6457e060405160405180910390a3506001600381905550600c5460046000620002316200071560201b60201c565b73ffffffffffffffffffffffffffffffffffffffff1673ffffffffffffffffffffffffffffffffffffffff16815260200190815260200160002081905550600073d99d1c33f9fc3444f8101754abc46c52416550d190508073ffffffffffffffffffffffffffffffffffffffff1663c45a01556040518163ffffffff1660e01b815260040160206040518083038186803b158015620002cf57600080fd5b505afa158015620002e4573d6000803e3d6000fd5b505050506040513d601f19601f820116820180604052508101906200030a91906200080d565b73ffffffffffffffffffffffffffffffffffffffff1663c9c65396308373ffffffffffffffffffffffffffffffffffffffff1663ad5c46486040518163ffffffff1660e01b815260040160206040518083038186803b1580156200036d57600080fd5b505afa15801562000382573d6000803e3d6000fd5b505050506040513d601f19601f82011682018060405250810190620003a891906200080d565b6040518363ffffffff1660e01b8152600401620003c79291906200085b565b602060405180830381600087803b158015620003e257600080fd5b505af1158015620003f7573d6000803e3d6000fd5b505050506040513d601f19601f820116820180604052508101906200041d91906200080d565b73ffffffffffffffffffffffffffffffffffffffff1660a08173ffffffffffffffffffffffffffffffffffffffff1660601b815250508073ffffffffffffffffffffffffffffffffffffffff1660808173ffffffffffffffffffffffffffffffffffffffff1660601b81525050600160076000620004a06200071d60201b60201c565b73ffffffffffffffffffffffffffffffffffffffff1673ffffffffffffffffffffffffffffffffffffffff16815260200190815260200160002060006101000a81548160ff0219169083151502179055506001600760003073ffffffffffffffffffffffffffffffffffffffff1673ffffffffffffffffffffffffffffffffffffffff16815260200190815260200160002060006101000a81548160ff0219169083151502179055506001600860003073ffffffffffffffffffffffffffffffffffffffff1673ffffffffffffffffffffffffffffffffffffffff16815260200190815260200160002060006101000a81548160ff021916908315150217905550600160076000600a60009054906101000a900473ffffffffffffffffffffffffffffffffffffffff1673ffffffffffffffffffffffffffffffffffffffff1673ffffffffffffffffffffffffffffffffffffffff16815260200190815260200160002060006101000a81548160ff021916908315150217905550600160086000600a60009054906101000a900473ffffffffffffffffffffffffffffffffffffffff1673ffffffffffffffffffffffffffffffffffffffff1673ffffffffffffffffffffffffffffffffffffffff16815260200190815260200160002060006101000a81548160ff021916908315150217905550620006a56200071560201b60201c565b73ffffffffffffffffffffffffffffffffffffffff16600073ffffffffffffffffffffffffffffffffffffffff167fddf252ad1be2c89b69c2b068fc378daa952ba7f163c4a11628f55a4df523b3ef600b5460405162000706919062000888565b60405180910390a35062000a33565b600033905090565b60008060009054906101000a900473ffffffffffffffffffffffffffffffffffffffff16905090565b82805462000754906200091e565b90600052602060002090601f016020900481019282620007785760008555620007c4565b82601f106200079357805160ff1916838001178555620007c4565b82800160010185558215620007c4579182015b82811115620007c3578251825591602001919060010190620007a6565b5b509050620007d39190620007d7565b5090565b5b80821115620007f2576000816000905550600101620007d8565b5090565b600081519050620008078162000a19565b92915050565b6000602082840312156200082057600080fd5b60006200083084828501620007f6565b91505092915050565b6200084481620008e0565b82525050565b620008558162000914565b82525050565b600060408201905062000872600083018562000839565b62000881602083018462000839565b9392505050565b60006020820190506200089f60008301846200084a565b92915050565b6000620008b28262000914565b9150620008bf8362000914565b925082821015620008d557620008d46200098c565b5b828203905092915050565b6000620008ed82620008f4565b9050919050565b600073ffffffffffffffffffffffffffffffffffffffff82169050919050565b6000819050919050565b600060028204905060018216806200093757607f821691505b602082108114156200094e576200094d620009ea565b5b50919050565b6000620009618262000914565b91506200096e8362000914565b925082620009815762000980620009bb565b5b828206905092915050565b7f4e487b7100000000000000000000000000000000000000000000000000000000600052601160045260246000fd5b7f4e487b7100000000000000000000000000000000000000000000000000000000600052601260045260246000fd5b7f4e487b7100000000000000000000000000000000000000000000000000000000600052602260045260246000fd5b62000a2481620008e0565b811462000a3057600080fd5b50565b60805160601c60a05160601c61531862000a5f600039600061153e015260006109d901526153186000f3fe60806040526004361061026e5760003560e01c806370a0823111610153578063b6c52324116100cb578063dd4670641161007f578063e266350311610064578063e2663503146108aa578063ea2f0b37146108d5578063f2fde38b146108fe57610275565b8063dd46706414610844578063dd62ed3e1461086d57610275565b8063cea26958116100b0578063cea26958146107c7578063d543dbeb146107f0578063d89135cd1461081957610275565b8063b6c5232414610771578063c0b0fda21461079c57610275565b80638da5cb5b11610122578063a457c2d711610107578063a457c2d7146106e0578063a69df4b51461071d578063a9059cbb1461073457610275565b80638da5cb5b1461068a57806395d89b41146106b557610275565b806370a08231146105ce578063715018a61461060b5780637d1db4a51461062257806388f820201461064d57610275565b80633bd5d173116101e657806349bd5a5e116101b557806352390c021161019a57806352390c021461053f5780635342acb4146105685780636bebaf97146105a557610275565b806349bd5a5e146104e957806351fde4bb1461051457610275565b80633bd5d173146104435780633ccfd60b1461046c578063437823ec146104835780634549b039146104ac57610275565b806323b872dd1161023d578063313ce56711610222578063313ce567146103b25780633685d419146103dd578063395093511461040657610275565b806323b872dd146103385780632d8381191461037557610275565b806306fdde031461027a578063095ea7b3146102a55780631694505e146102e257806318160ddd1461030d57610275565b3661027557005b600080fd5b34801561028657600080fd5b5061028f610927565b60405161029c9190614887565b60405180910390f35b3480156102b157600080fd5b506102cc60048036038101906102c79190614443565b6109b9565b6040516102d99190614851565b60405180910390f35b3480156102ee57600080fd5b506102f76109d7565b604051610304919061486c565b60405180910390f35b34801561031957600080fd5b506103226109fb565b60405161032f9190614ac9565b60405180910390f35b34801561034457600080fd5b5061035f600480360381019061035a91906143f4565b610a05565b60405161036c9190614851565b60405180910390f35b34801561038157600080fd5b5061039c600480360381019061039791906144a8565b610ade565b6040516103a99190614ac9565b60405180910390f35b3480156103be57600080fd5b506103c7610b4c565b6040516103d49190614ae4565b60405180910390f35b3480156103e957600080fd5b5061040460048036038101906103ff919061438f565b610b63565b005b34801561041257600080fd5b5061042d60048036038101906104289190614443565b610f4a565b60405161043a9190614851565b60405180910390f35b34801561044f57600080fd5b5061046a600480360381019061046591906144a8565b610ffd565b005b34801561047857600080fd5b50610481611178565b005b34801561048f57600080fd5b506104aa60048036038101906104a5919061438f565b6113c8565b005b3480156104b857600080fd5b506104d360048036038101906104ce91906144fa565b6114b8565b6040516104e09190614ac9565b60405180910390f35b3480156104f557600080fd5b506104fe61153c565b60405161050b919061480d565b60405180910390f35b34801561052057600080fd5b50610529611560565b6040516105369190614ac9565b60405180910390f35b34801561054b57600080fd5b506105666004803603810190610561919061438f565b611566565b005b34801561057457600080fd5b5061058f600480360381019061058a919061438f565b61181a565b60405161059c9190614851565b60405180910390f35b3480156105b157600080fd5b506105cc60048036038101906105c791906144a8565b611870565b005b3480156105da57600080fd5b506105f560048036038101906105f0919061438f565b61190f565b6040516106029190614ac9565b60405180910390f35b34801561061757600080fd5b506106206119fa565b005b34801561062e57600080fd5b50610637611b4d565b6040516106449190614ac9565b60405180910390f35b34801561065957600080fd5b50610674600480360381019061066f919061438f565b611b53565b6040516106819190614851565b60405180910390f35b34801561069657600080fd5b5061069f611ba9565b6040516106ac919061480d565b60405180910390f35b3480156106c157600080fd5b506106ca611bd2565b6040516106d79190614887565b60405180910390f35b3480156106ec57600080fd5b5061070760048036038101906107029190614443565b611c64565b6040516107149190614851565b60405180910390f35b34801561072957600080fd5b50610732611d31565b005b34801561074057600080fd5b5061075b60048036038101906107569190614443565b611f05565b6040516107689190614851565b60405180910390f35b34801561077d57600080fd5b50610786611f23565b6040516107939190614ac9565b60405180910390f35b3480156107a857600080fd5b506107b1611f2d565b6040516107be9190614ac9565b60405180910390f35b3480156107d357600080fd5b506107ee60048036038101906107e991906144a8565b611f33565b005b3480156107fc57600080fd5b50610817600480360381019061081291906144a8565b611fd2565b005b34801561082557600080fd5b5061082e612098565b60405161083b9190614ac9565b60405180910390f35b34801561085057600080fd5b5061086b600480360381019061086691906144a8565b6120ca565b005b34801561087957600080fd5b50610894600480360381019061088f91906143b8565b612291565b6040516108a19190614ac9565b60405180910390f35b3480156108b657600080fd5b506108bf612318565b6040516108cc9190614ac9565b60405180910390f35b3480156108e157600080fd5b506108fc60048036038101906108f7919061438f565b612322565b005b34801561090a57600080fd5b506109256004803603810190610920919061438f565b612412565b005b6060600e805461093690614cdc565b80601f016020809104026020016040519081016040528092919081815260200182805461096290614cdc565b80156109af5780601f10610984576101008083540402835291602001916109af565b820191906000526020600020905b81548152906001019060200180831161099257829003601f168201915b5050505050905090565b60006109cd6109c66125d4565b84846125dc565b6001905092915050565b7f000000000000000000000000000000000000000000000000000000000000000081565b6000600b54905090565b6000610a128484846127a7565b610ad384610a1e6125d4565b610ace8560405180606001604052806028815260200161529660289139600660008b73ffffffffffffffffffffffffffffffffffffffff1673ffffffffffffffffffffffffffffffffffffffff1681526020019081526020016000206000610a846125d4565b73ffffffffffffffffffffffffffffffffffffffff1673ffffffffffffffffffffffffffffffffffffffff16815260200190815260200160002054612a4e9092919063ffffffff16565b6125dc565b600190509392505050565b6000600c54821115610b25576040517f08c379a0000000000000000000000000000000000000000000000000000000008152600401610b1c906148c9565b60405180910390fd5b6000610b2f612ab2565b9050610b448184612add90919063ffffffff16565b915050919050565b6000601060009054906101000a900460ff16905090565b610b6b6125d4565b73ffffffffffffffffffffffffffffffffffffffff1660008054906101000a900473ffffffffffffffffffffffffffffffffffffffff1673ffffffffffffffffffffffffffffffffffffffff1614610bf8576040517f08c379a0000000000000000000000000000000000000000000000000000000008152600401610bef906149c9565b60405180910390fd5b600860008273ffffffffffffffffffffffffffffffffffffffff1673ffffffffffffffffffffffffffffffffffffffff16815260200190815260200160002060009054906101000a900460ff16610c84576040517f08c379a0000000000000000000000000000000000000000000000000000000008152600401610c7b90614949565b60405180910390fd5b60005b600980549050811015610f46578173ffffffffffffffffffffffffffffffffffffffff1660098281548110610ce5577f4e487b7100000000000000000000000000000000000000000000000000000000600052603260045260246000fd5b9060005260206000200160009054906101000a900473ffffffffffffffffffffffffffffffffffffffff1673ffffffffffffffffffffffffffffffffffffffff161415610f335760096001600980549050610d409190614bfc565b81548110610d77577f4e487b7100000000000000000000000000000000000000000000000000000000600052603260045260246000fd5b9060005260206000200160009054906101000a900473ffffffffffffffffffffffffffffffffffffffff1660098281548110610ddc577f4e487b7100000000000000000000000000000000000000000000000000000000600052603260045260246000fd5b9060005260206000200160006101000a81548173ffffffffffffffffffffffffffffffffffffffff021916908373ffffffffffffffffffffffffffffffffffffffff1602179055506000600560008473ffffffffffffffffffffffffffffffffffffffff1673ffffffffffffffffffffffffffffffffffffffff168152602001908152602001600020819055506000600860008473ffffffffffffffffffffffffffffffffffffffff1673ffffffffffffffffffffffffffffffffffffffff16815260200190815260200160002060006101000a81548160ff0219169083151502179055506009805480610ef9577f4e487b7100000000000000000000000000000000000000000000000000000000600052603160045260246000fd5b6001900381819060005260206000200160006101000a81549073ffffffffffffffffffffffffffffffffffffffff02191690559055610f46565b8080610f3e90614d0e565b915050610c87565b5050565b6000610ff3610f576125d4565b84610fee8560066000610f686125d4565b73ffffffffffffffffffffffffffffffffffffffff1673ffffffffffffffffffffffffffffffffffffffff16815260200190815260200160002060008973ffffffffffffffffffffffffffffffffffffffff1673ffffffffffffffffffffffffffffffffffffffff16815260200190815260200160002054612b2790919063ffffffff16565b6125dc565b6001905092915050565b60006110076125d4565b9050600860008273ffffffffffffffffffffffffffffffffffffffff1673ffffffffffffffffffffffffffffffffffffffff16815260200190815260200160002060009054906101000a900460ff1615611096576040517f08c379a000000000000000000000000000000000000000000000000000000000815260040161108d90614a89565b60405180910390fd5b60006110a183612b85565b505050505090506110fa81600460008573ffffffffffffffffffffffffffffffffffffffff1673ffffffffffffffffffffffffffffffffffffffff16815260200190815260200160002054612be190919063ffffffff16565b600460008473ffffffffffffffffffffffffffffffffffffffff1673ffffffffffffffffffffffffffffffffffffffff1681526020019081526020016000208190555061115281600c54612be190919063ffffffff16565b600c8190555061116d83600d54612b2790919063ffffffff16565b600d81905550505050565b6111806125d4565b73ffffffffffffffffffffffffffffffffffffffff1660008054906101000a900473ffffffffffffffffffffffffffffffffffffffff1673ffffffffffffffffffffffffffffffffffffffff161461120d576040517f08c379a0000000000000000000000000000000000000000000000000000000008152600401611204906149c9565b60405180910390fd5b60026003541415611253576040517f08c379a000000000000000000000000000000000000000000000000000000000815260040161124a90614a69565b60405180910390fd5b600260038190555060003073ffffffffffffffffffffffffffffffffffffffff166370a08231306040518263ffffffff1660e01b8152600401611296919061480d565b60206040518083038186803b1580156112ae57600080fd5b505afa1580156112c2573d6000803e3d6000fd5b505050506040513d601f19601f820116820180604052508101906112e691906144d1565b90503073ffffffffffffffffffffffffffffffffffffffff1663a9059cbb33836040518363ffffffff1660e01b8152600401611323929190614828565b602060405180830381600087803b15801561133d57600080fd5b505af1158015611351573d6000803e3d6000fd5b505050506040513d601f19601f82011682018060405250810190611375919061447f565b503373ffffffffffffffffffffffffffffffffffffffff166108fc479081150290604051600060405180830381858888f193505050501580156113bc573d6000803e3d6000fd5b50506001600381905550565b6113d06125d4565b73ffffffffffffffffffffffffffffffffffffffff1660008054906101000a900473ffffffffffffffffffffffffffffffffffffffff1673ffffffffffffffffffffffffffffffffffffffff161461145d576040517f08c379a0000000000000000000000000000000000000000000000000000000008152600401611454906149c9565b60405180910390fd5b6001600760008373ffffffffffffffffffffffffffffffffffffffff1673ffffffffffffffffffffffffffffffffffffffff16815260200190815260200160002060006101000a81548160ff02191690831515021790555050565b6000600b548311156114ff576040517f08c379a00000000000000000000000000000000000000000000000000000000081526004016114f690614969565b60405180910390fd5b8161151f57600061150f84612b85565b5050505050905080915050611536565b600061152a84612b85565b50505050915050809150505b92915050565b7f000000000000000000000000000000000000000000000000000000000000000081565b60115481565b61156e6125d4565b73ffffffffffffffffffffffffffffffffffffffff1660008054906101000a900473ffffffffffffffffffffffffffffffffffffffff1673ffffffffffffffffffffffffffffffffffffffff16146115fb576040517f08c379a00000000000000000000000000000000000000000000000000000000081526004016115f2906149c9565b60405180910390fd5b600860008273ffffffffffffffffffffffffffffffffffffffff1673ffffffffffffffffffffffffffffffffffffffff16815260200190815260200160002060009054906101000a900460ff1615611688576040517f08c379a000000000000000000000000000000000000000000000000000000000815260040161167f90614949565b60405180910390fd5b6000600460008373ffffffffffffffffffffffffffffffffffffffff1673ffffffffffffffffffffffffffffffffffffffff16815260200190815260200160002054111561175c57611718600460008373ffffffffffffffffffffffffffffffffffffffff1673ffffffffffffffffffffffffffffffffffffffff16815260200190815260200160002054610ade565b600560008373ffffffffffffffffffffffffffffffffffffffff1673ffffffffffffffffffffffffffffffffffffffff168152602001908152602001600020819055505b6001600860008373ffffffffffffffffffffffffffffffffffffffff1673ffffffffffffffffffffffffffffffffffffffff16815260200190815260200160002060006101000a81548160ff0219169083151502179055506009819080600181540180825580915050600190039060005260206000200160009091909190916101000a81548173ffffffffffffffffffffffffffffffffffffffff021916908373ffffffffffffffffffffffffffffffffffffffff16021790555050565b6000600760008373ffffffffffffffffffffffffffffffffffffffff1673ffffffffffffffffffffffffffffffffffffffff16815260200190815260200160002060009054906101000a900460ff169050919050565b6118786125d4565b73ffffffffffffffffffffffffffffffffffffffff1660008054906101000a900473ffffffffffffffffffffffffffffffffffffffff1673ffffffffffffffffffffffffffffffffffffffff1614611905576040517f08c379a00000000000000000000000000000000000000000000000000000000081526004016118fc906149c9565b60405180910390fd5b8060118190555050565b6000600860008373ffffffffffffffffffffffffffffffffffffffff1673ffffffffffffffffffffffffffffffffffffffff16815260200190815260200160002060009054906101000a900460ff16156119aa57600560008373ffffffffffffffffffffffffffffffffffffffff1673ffffffffffffffffffffffffffffffffffffffff1681526020019081526020016000205490506119f5565b6119f2600460008473ffffffffffffffffffffffffffffffffffffffff1673ffffffffffffffffffffffffffffffffffffffff16815260200190815260200160002054610ade565b90505b919050565b611a026125d4565b73ffffffffffffffffffffffffffffffffffffffff1660008054906101000a900473ffffffffffffffffffffffffffffffffffffffff1673ffffffffffffffffffffffffffffffffffffffff1614611a8f576040517f08c379a0000000000000000000000000000000000000000000000000000000008152600401611a86906149c9565b60405180910390fd5b600073ffffffffffffffffffffffffffffffffffffffff1660008054906101000a900473ffffffffffffffffffffffffffffffffffffffff1673ffffffffffffffffffffffffffffffffffffffff167f8be0079c531659141344cd1fd0a4f28419497f9722a3daafe3b4186f6b6457e060405160405180910390a360008060006101000a81548173ffffffffffffffffffffffffffffffffffffffff021916908373ffffffffffffffffffffffffffffffffffffffff160217905550565b60155481565b6000600860008373ffffffffffffffffffffffffffffffffffffffff1673ffffffffffffffffffffffffffffffffffffffff16815260200190815260200160002060009054906101000a900460ff169050919050565b60008060009054906101000a900473ffffffffffffffffffffffffffffffffffffffff16905090565b6060600f8054611be190614cdc565b80601f0160208091040260200160405190810160405280929190818152602001828054611c0d90614cdc565b8015611c5a5780601f10611c2f57610100808354040283529160200191611c5a565b820191906000526020600020905b815481529060010190602001808311611c3d57829003601f168201915b5050505050905090565b6000611d27611c716125d4565b84611d22856040518060600160405280602581526020016152be6025913960066000611c9b6125d4565b73ffffffffffffffffffffffffffffffffffffffff1673ffffffffffffffffffffffffffffffffffffffff16815260200190815260200160002060008a73ffffffffffffffffffffffffffffffffffffffff1673ffffffffffffffffffffffffffffffffffffffff16815260200190815260200160002054612a4e9092919063ffffffff16565b6125dc565b6001905092915050565b3373ffffffffffffffffffffffffffffffffffffffff16600160009054906101000a900473ffffffffffffffffffffffffffffffffffffffff1673ffffffffffffffffffffffffffffffffffffffff1614611dc1576040517f08c379a0000000000000000000000000000000000000000000000000000000008152600401611db890614aa9565b60405180910390fd5b6002544211611e05576040517f08c379a0000000000000000000000000000000000000000000000000000000008152600401611dfc90614a49565b60405180910390fd5b600160009054906101000a900473ffffffffffffffffffffffffffffffffffffffff1673ffffffffffffffffffffffffffffffffffffffff1660008054906101000a900473ffffffffffffffffffffffffffffffffffffffff1673ffffffffffffffffffffffffffffffffffffffff167f8be0079c531659141344cd1fd0a4f28419497f9722a3daafe3b4186f6b6457e060405160405180910390a3600160009054906101000a900473ffffffffffffffffffffffffffffffffffffffff166000806101000a81548173ffffffffffffffffffffffffffffffffffffffff021916908373ffffffffffffffffffffffffffffffffffffffff160217905550565b6000611f19611f126125d4565b84846127a7565b6001905092915050565b6000600254905090565b60135481565b611f3b6125d4565b73ffffffffffffffffffffffffffffffffffffffff1660008054906101000a900473ffffffffffffffffffffffffffffffffffffffff1673ffffffffffffffffffffffffffffffffffffffff1614611fc8576040517f08c379a0000000000000000000000000000000000000000000000000000000008152600401611fbf906149c9565b60405180910390fd5b8060138190555050565b611fda6125d4565b73ffffffffffffffffffffffffffffffffffffffff1660008054906101000a900473ffffffffffffffffffffffffffffffffffffffff1673ffffffffffffffffffffffffffffffffffffffff1614612067576040517f08c379a000000000000000000000000000000000000000000000000000000000815260040161205e906149c9565b60405180910390fd5b61208f606461208183600b54612c2b90919063ffffffff16565b612add90919063ffffffff16565b60158190555050565b60006120c5600a60009054906101000a900473ffffffffffffffffffffffffffffffffffffffff1661190f565b905090565b6120d26125d4565b73ffffffffffffffffffffffffffffffffffffffff1660008054906101000a900473ffffffffffffffffffffffffffffffffffffffff1673ffffffffffffffffffffffffffffffffffffffff161461215f576040517f08c379a0000000000000000000000000000000000000000000000000000000008152600401612156906149c9565b60405180910390fd5b60008054906101000a900473ffffffffffffffffffffffffffffffffffffffff16600160006101000a81548173ffffffffffffffffffffffffffffffffffffffff021916908373ffffffffffffffffffffffffffffffffffffffff16021790555060008060006101000a81548173ffffffffffffffffffffffffffffffffffffffff021916908373ffffffffffffffffffffffffffffffffffffffff160217905550804261220d9190614b1b565b600281905550600073ffffffffffffffffffffffffffffffffffffffff1660008054906101000a900473ffffffffffffffffffffffffffffffffffffffff1673ffffffffffffffffffffffffffffffffffffffff167f8be0079c531659141344cd1fd0a4f28419497f9722a3daafe3b4186f6b6457e060405160405180910390a350565b6000600660008473ffffffffffffffffffffffffffffffffffffffff1673ffffffffffffffffffffffffffffffffffffffff16815260200190815260200160002060008373ffffffffffffffffffffffffffffffffffffffff1673ffffffffffffffffffffffffffffffffffffffff16815260200190815260200160002054905092915050565b6000600d54905090565b61232a6125d4565b73ffffffffffffffffffffffffffffffffffffffff1660008054906101000a900473ffffffffffffffffffffffffffffffffffffffff1673ffffffffffffffffffffffffffffffffffffffff16146123b7576040517f08c379a00000000000000000000000000000000000000000000000000000000081526004016123ae906149c9565b60405180910390fd5b6000600760008373ffffffffffffffffffffffffffffffffffffffff1673ffffffffffffffffffffffffffffffffffffffff16815260200190815260200160002060006101000a81548160ff02191690831515021790555050565b61241a6125d4565b73ffffffffffffffffffffffffffffffffffffffff1660008054906101000a900473ffffffffffffffffffffffffffffffffffffffff1673ffffffffffffffffffffffffffffffffffffffff16146124a7576040517f08c379a000000000000000000000000000000000000000000000000000000000815260040161249e906149c9565b60405180910390fd5b600073ffffffffffffffffffffffffffffffffffffffff168173ffffffffffffffffffffffffffffffffffffffff161415612517576040517f08c379a000000000000000000000000000000000000000000000000000000000815260040161250e906148e9565b60405180910390fd5b8073ffffffffffffffffffffffffffffffffffffffff1660008054906101000a900473ffffffffffffffffffffffffffffffffffffffff1673ffffffffffffffffffffffffffffffffffffffff167f8be0079c531659141344cd1fd0a4f28419497f9722a3daafe3b4186f6b6457e060405160405180910390a3806000806101000a81548173ffffffffffffffffffffffffffffffffffffffff021916908373ffffffffffffffffffffffffffffffffffffffff16021790555050565b600033905090565b600073ffffffffffffffffffffffffffffffffffffffff168373ffffffffffffffffffffffffffffffffffffffff16141561264c576040517f08c379a000000000000000000000000000000000000000000000000000000000815260040161264390614a29565b60405180910390fd5b600073ffffffffffffffffffffffffffffffffffffffff168273ffffffffffffffffffffffffffffffffffffffff1614156126bc576040517f08c379a00000000000000000000000000000000000000000000000000000000081526004016126b390614909565b60405180910390fd5b80600660008573ffffffffffffffffffffffffffffffffffffffff1673ffffffffffffffffffffffffffffffffffffffff16815260200190815260200160002060008473ffffffffffffffffffffffffffffffffffffffff1673ffffffffffffffffffffffffffffffffffffffff168152602001908152602001600020819055508173ffffffffffffffffffffffffffffffffffffffff168373ffffffffffffffffffffffffffffffffffffffff167f8c5be1e5ebec7d5bd14f71427d1e84f3dd0314c0f7b2291e5b200ac8c7c3b9258360405161279a9190614ac9565b60405180910390a3505050565b600073ffffffffffffffffffffffffffffffffffffffff168373ffffffffffffffffffffffffffffffffffffffff161415612817576040517f08c379a000000000000000000000000000000000000000000000000000000000815260040161280e90614a09565b60405180910390fd5b600073ffffffffffffffffffffffffffffffffffffffff168273ffffffffffffffffffffffffffffffffffffffff161415612887576040517f08c379a000000000000000000000000000000000000000000000000000000000815260040161287e906148a9565b60405180910390fd5b600081116128ca576040517f08c379a00000000000000000000000000000000000000000000000000000000081526004016128c1906149e9565b60405180910390fd5b6128d2611ba9565b73ffffffffffffffffffffffffffffffffffffffff168373ffffffffffffffffffffffffffffffffffffffff16141580156129405750612910611ba9565b73ffffffffffffffffffffffffffffffffffffffff168273ffffffffffffffffffffffffffffffffffffffff1614155b1561298b5760155481111561298a576040517f08c379a000000000000000000000000000000000000000000000000000000000815260040161298190614989565b60405180910390fd5b5b600060019050600760008573ffffffffffffffffffffffffffffffffffffffff1673ffffffffffffffffffffffffffffffffffffffff16815260200190815260200160002060009054906101000a900460ff1680612a325750600760008473ffffffffffffffffffffffffffffffffffffffff1673ffffffffffffffffffffffffffffffffffffffff16815260200190815260200160002060009054906101000a900460ff165b15612a3c57600090505b612a4884848484612ca6565b50505050565b6000838311158290612a96576040517f08c379a0000000000000000000000000000000000000000000000000000000008152600401612a8d9190614887565b60405180910390fd5b5060008385612aa59190614bfc565b9050809150509392505050565b6000806000612abf612fb7565b91509150612ad68183612add90919063ffffffff16565b9250505090565b6000612b1f83836040518060400160405280601a81526020017f536166654d6174683a206469766973696f6e206279207a65726f000000000000815250613302565b905092915050565b6000808284612b369190614b1b565b905083811015612b7b576040517f08c379a0000000000000000000000000000000000000000000000000000000008152600401612b7290614929565b60405180910390fd5b8091505092915050565b6000806000806000806000806000612b9c8a613365565b9250925092506000806000612bba8d8686612bb5612ab2565b6133bf565b9250925092508282828888889b509b509b509b509b509b5050505050505091939550919395565b6000612c2383836040518060400160405280601e81526020017f536166654d6174683a207375627472616374696f6e206f766572666c6f770000815250612a4e565b905092915050565b600080831415612c3e5760009050612ca0565b60008284612c4c9190614ba2565b9050828482612c5b9190614b71565b14612c9b576040517f08c379a0000000000000000000000000000000000000000000000000000000008152600401612c92906149a9565b60405180910390fd5b809150505b92915050565b80612cb457612cb3613448565b5b600860008573ffffffffffffffffffffffffffffffffffffffff1673ffffffffffffffffffffffffffffffffffffffff16815260200190815260200160002060009054906101000a900460ff168015612d575750600860008473ffffffffffffffffffffffffffffffffffffffff1673ffffffffffffffffffffffffffffffffffffffff16815260200190815260200160002060009054906101000a900460ff16155b15612d6c57612d6784848461348b565b612fa3565b600860008573ffffffffffffffffffffffffffffffffffffffff1673ffffffffffffffffffffffffffffffffffffffff16815260200190815260200160002060009054906101000a900460ff16158015612e0f5750600860008473ffffffffffffffffffffffffffffffffffffffff1673ffffffffffffffffffffffffffffffffffffffff16815260200190815260200160002060009054906101000a900460ff165b15612e2457612e1f848484613772565b612fa2565b600860008573ffffffffffffffffffffffffffffffffffffffff1673ffffffffffffffffffffffffffffffffffffffff16815260200190815260200160002060009054906101000a900460ff16158015612ec85750600860008473ffffffffffffffffffffffffffffffffffffffff1673ffffffffffffffffffffffffffffffffffffffff16815260200190815260200160002060009054906101000a900460ff16155b15612edd57612ed8848484613a59565b612fa1565b600860008573ffffffffffffffffffffffffffffffffffffffff1673ffffffffffffffffffffffffffffffffffffffff16815260200190815260200160002060009054906101000a900460ff168015612f7f5750600860008473ffffffffffffffffffffffffffffffffffffffff1673ffffffffffffffffffffffffffffffffffffffff16815260200190815260200160002060009054906101000a900460ff165b15612f9457612f8f848484613cab565b612fa0565b612f9f848484613a59565b5b5b5b5b80612fb157612fb0614027565b5b50505050565b6000806000600c5490506000600b54905060005b6009805490508110156132c557826004600060098481548110613017577f4e487b7100000000000000000000000000000000000000000000000000000000600052603260045260246000fd5b9060005260206000200160009054906101000a900473ffffffffffffffffffffffffffffffffffffffff1673ffffffffffffffffffffffffffffffffffffffff1673ffffffffffffffffffffffffffffffffffffffff16815260200190815260200160002054118061312b57508160056000600984815481106130c3577f4e487b7100000000000000000000000000000000000000000000000000000000600052603260045260246000fd5b9060005260206000200160009054906101000a900473ffffffffffffffffffffffffffffffffffffffff1673ffffffffffffffffffffffffffffffffffffffff1673ffffffffffffffffffffffffffffffffffffffff16815260200190815260200160002054115b1561314257600c54600b54945094505050506132fe565b6131f86004600060098481548110613183577f4e487b7100000000000000000000000000000000000000000000000000000000600052603260045260246000fd5b9060005260206000200160009054906101000a900473ffffffffffffffffffffffffffffffffffffffff1673ffffffffffffffffffffffffffffffffffffffff1673ffffffffffffffffffffffffffffffffffffffff1681526020019081526020016000205484612be190919063ffffffff16565b92506132b0600560006009848154811061323b577f4e487b7100000000000000000000000000000000000000000000000000000000600052603260045260246000fd5b9060005260206000200160009054906101000a900473ffffffffffffffffffffffffffffffffffffffff1673ffffffffffffffffffffffffffffffffffffffff1673ffffffffffffffffffffffffffffffffffffffff1681526020019081526020016000205483612be190919063ffffffff16565b915080806132bd90614d0e565b915050612fcb565b506132dd600b54600c54612add90919063ffffffff16565b8210156132f557600c54600b549350935050506132fe565b81819350935050505b9091565b60008083118290613349576040517f08c379a00000000000000000000000000000000000000000000000000000000081526004016133409190614887565b60405180910390fd5b50600083856133589190614b71565b9050809150509392505050565b6000806000806133748561403b565b905060006133818661406c565b905060006133aa8261339c858a612be190919063ffffffff16565b612be190919063ffffffff16565b90508083839550955095505050509193909250565b6000806000806133d88589612c2b90919063ffffffff16565b905060006133ef8689612c2b90919063ffffffff16565b905060006134068789612c2b90919063ffffffff16565b9050600061342f826134218587612be190919063ffffffff16565b612be190919063ffffffff16565b9050838184965096509650505050509450945094915050565b600060115414801561345c57506000601354145b1561346657613489565b601154601281905550601354601481905550600060118190555060006013819055505b565b60008060008060008061349d87612b85565b9550955095509550955095506134fb87600560008c73ffffffffffffffffffffffffffffffffffffffff1673ffffffffffffffffffffffffffffffffffffffff16815260200190815260200160002054612be190919063ffffffff16565b600560008b73ffffffffffffffffffffffffffffffffffffffff1673ffffffffffffffffffffffffffffffffffffffff1681526020019081526020016000208190555061359086600460008c73ffffffffffffffffffffffffffffffffffffffff1673ffffffffffffffffffffffffffffffffffffffff16815260200190815260200160002054612be190919063ffffffff16565b600460008b73ffffffffffffffffffffffffffffffffffffffff1673ffffffffffffffffffffffffffffffffffffffff1681526020019081526020016000208190555061362585600460008b73ffffffffffffffffffffffffffffffffffffffff1673ffffffffffffffffffffffffffffffffffffffff16815260200190815260200160002054612b2790919063ffffffff16565b600460008a73ffffffffffffffffffffffffffffffffffffffff1673ffffffffffffffffffffffffffffffffffffffff168152602001908152602001600020819055506136718161409d565b61367b84836142ec565b600a60009054906101000a900473ffffffffffffffffffffffffffffffffffffffff1673ffffffffffffffffffffffffffffffffffffffff168973ffffffffffffffffffffffffffffffffffffffff167f61a114146810c6557dedd314dae835429358ca71b5ffdccc4ef651238ae0f7d4836040516136fa9190614ac9565b60405180910390a38773ffffffffffffffffffffffffffffffffffffffff168973ffffffffffffffffffffffffffffffffffffffff167fddf252ad1be2c89b69c2b068fc378daa952ba7f163c4a11628f55a4df523b3ef8560405161375f9190614ac9565b60405180910390a3505050505050505050565b60008060008060008061378487612b85565b9550955095509550955095506137e286600460008c73ffffffffffffffffffffffffffffffffffffffff1673ffffffffffffffffffffffffffffffffffffffff16815260200190815260200160002054612be190919063ffffffff16565b600460008b73ffffffffffffffffffffffffffffffffffffffff1673ffffffffffffffffffffffffffffffffffffffff1681526020019081526020016000208190555061387783600560008b73ffffffffffffffffffffffffffffffffffffffff1673ffffffffffffffffffffffffffffffffffffffff16815260200190815260200160002054612b2790919063ffffffff16565b600560008a73ffffffffffffffffffffffffffffffffffffffff1673ffffffffffffffffffffffffffffffffffffffff1681526020019081526020016000208190555061390c85600460008b73ffffffffffffffffffffffffffffffffffffffff1673ffffffffffffffffffffffffffffffffffffffff16815260200190815260200160002054612b2790919063ffffffff16565b600460008a73ffffffffffffffffffffffffffffffffffffffff1673ffffffffffffffffffffffffffffffffffffffff168152602001908152602001600020819055506139588161409d565b61396284836142ec565b600a60009054906101000a900473ffffffffffffffffffffffffffffffffffffffff1673ffffffffffffffffffffffffffffffffffffffff168973ffffffffffffffffffffffffffffffffffffffff167f61a114146810c6557dedd314dae835429358ca71b5ffdccc4ef651238ae0f7d4836040516139e19190614ac9565b60405180910390a38773ffffffffffffffffffffffffffffffffffffffff168973ffffffffffffffffffffffffffffffffffffffff167fddf252ad1be2c89b69c2b068fc378daa952ba7f163c4a11628f55a4df523b3ef85604051613a469190614ac9565b60405180910390a3505050505050505050565b600080600080600080613a6b87612b85565b955095509550955095509550613ac986600460008c73ffffffffffffffffffffffffffffffffffffffff1673ffffffffffffffffffffffffffffffffffffffff16815260200190815260200160002054612be190919063ffffffff16565b600460008b73ffffffffffffffffffffffffffffffffffffffff1673ffffffffffffffffffffffffffffffffffffffff16815260200190815260200160002081905550613b5e85600460008b73ffffffffffffffffffffffffffffffffffffffff1673ffffffffffffffffffffffffffffffffffffffff16815260200190815260200160002054612b2790919063ffffffff16565b600460008a73ffffffffffffffffffffffffffffffffffffffff1673ffffffffffffffffffffffffffffffffffffffff16815260200190815260200160002081905550613baa8161409d565b613bb484836142ec565b600a60009054906101000a900473ffffffffffffffffffffffffffffffffffffffff1673ffffffffffffffffffffffffffffffffffffffff168973ffffffffffffffffffffffffffffffffffffffff167f61a114146810c6557dedd314dae835429358ca71b5ffdccc4ef651238ae0f7d483604051613c339190614ac9565b60405180910390a38773ffffffffffffffffffffffffffffffffffffffff168973ffffffffffffffffffffffffffffffffffffffff167fddf252ad1be2c89b69c2b068fc378daa952ba7f163c4a11628f55a4df523b3ef85604051613c989190614ac9565b60405180910390a3505050505050505050565b600080600080600080613cbd87612b85565b955095509550955095509550613d1b87600560008c73ffffffffffffffffffffffffffffffffffffffff1673ffffffffffffffffffffffffffffffffffffffff16815260200190815260200160002054612be190919063ffffffff16565b600560008b73ffffffffffffffffffffffffffffffffffffffff1673ffffffffffffffffffffffffffffffffffffffff16815260200190815260200160002081905550613db086600460008c73ffffffffffffffffffffffffffffffffffffffff1673ffffffffffffffffffffffffffffffffffffffff16815260200190815260200160002054612be190919063ffffffff16565b600460008b73ffffffffffffffffffffffffffffffffffffffff1673ffffffffffffffffffffffffffffffffffffffff16815260200190815260200160002081905550613e4583600560008b73ffffffffffffffffffffffffffffffffffffffff1673ffffffffffffffffffffffffffffffffffffffff16815260200190815260200160002054612b2790919063ffffffff16565b600560008a73ffffffffffffffffffffffffffffffffffffffff1673ffffffffffffffffffffffffffffffffffffffff16815260200190815260200160002081905550613eda85600460008b73ffffffffffffffffffffffffffffffffffffffff1673ffffffffffffffffffffffffffffffffffffffff16815260200190815260200160002054612b2790919063ffffffff16565b600460008a73ffffffffffffffffffffffffffffffffffffffff1673ffffffffffffffffffffffffffffffffffffffff16815260200190815260200160002081905550613f268161409d565b613f3084836142ec565b600a60009054906101000a900473ffffffffffffffffffffffffffffffffffffffff1673ffffffffffffffffffffffffffffffffffffffff168973ffffffffffffffffffffffffffffffffffffffff167f61a114146810c6557dedd314dae835429358ca71b5ffdccc4ef651238ae0f7d483604051613faf9190614ac9565b60405180910390a38773ffffffffffffffffffffffffffffffffffffffff168973ffffffffffffffffffffffffffffffffffffffff167fddf252ad1be2c89b69c2b068fc378daa952ba7f163c4a11628f55a4df523b3ef856040516140149190614ac9565b60405180910390a3505050505050505050565b601254601181905550601454601381905550565b6000614065606461405760115485612c2b90919063ffffffff16565b612add90919063ffffffff16565b9050919050565b6000614096606461408860135485612c2b90919063ffffffff16565b612add90919063ffffffff16565b9050919050565b60006140a7612ab2565b905060006140be8284612c2b90919063ffffffff16565b90506141348160046000600a60009054906101000a900473ffffffffffffffffffffffffffffffffffffffff1673ffffffffffffffffffffffffffffffffffffffff1673ffffffffffffffffffffffffffffffffffffffff16815260200190815260200160002054612b2790919063ffffffff16565b60046000600a60009054906101000a900473ffffffffffffffffffffffffffffffffffffffff1673ffffffffffffffffffffffffffffffffffffffff1673ffffffffffffffffffffffffffffffffffffffff1681526020019081526020016000208190555060086000600a60009054906101000a900473ffffffffffffffffffffffffffffffffffffffff1673ffffffffffffffffffffffffffffffffffffffff1673ffffffffffffffffffffffffffffffffffffffff16815260200190815260200160002060009054906101000a900460ff16156142e7576142818360056000600a60009054906101000a900473ffffffffffffffffffffffffffffffffffffffff1673ffffffffffffffffffffffffffffffffffffffff1673ffffffffffffffffffffffffffffffffffffffff16815260200190815260200160002054612b2790919063ffffffff16565b60056000600a60009054906101000a900473ffffffffffffffffffffffffffffffffffffffff1673ffffffffffffffffffffffffffffffffffffffff1673ffffffffffffffffffffffffffffffffffffffff168152602001908152602001600020819055505b505050565b61430182600c54612be190919063ffffffff16565b600c8190555061431c81600d54612b2790919063ffffffff16565b600d819055505050565b60008135905061433581615250565b92915050565b60008135905061434a81615267565b92915050565b60008151905061435f81615267565b92915050565b6000813590506143748161527e565b92915050565b6000815190506143898161527e565b92915050565b6000602082840312156143a157600080fd5b60006143af84828501614326565b91505092915050565b600080604083850312156143cb57600080fd5b60006143d985828601614326565b92505060206143ea85828601614326565b9150509250929050565b60008060006060848603121561440957600080fd5b600061441786828701614326565b935050602061442886828701614326565b925050604061443986828701614365565b9150509250925092565b6000806040838503121561445657600080fd5b600061446485828601614326565b925050602061447585828601614365565b9150509250929050565b60006020828403121561449157600080fd5b600061449f84828501614350565b91505092915050565b6000602082840312156144ba57600080fd5b60006144c884828501614365565b91505092915050565b6000602082840312156144e357600080fd5b60006144f18482850161437a565b91505092915050565b6000806040838503121561450d57600080fd5b600061451b85828601614365565b925050602061452c8582860161433b565b9150509250929050565b61453f81614c30565b82525050565b61454e81614c42565b82525050565b61455d81614c85565b82525050565b600061456e82614aff565b6145788185614b0a565b9350614588818560208601614ca9565b61459181614de4565b840191505092915050565b60006145a9602383614b0a565b91506145b482614df5565b604082019050919050565b60006145cc602a83614b0a565b91506145d782614e44565b604082019050919050565b60006145ef602683614b0a565b91506145fa82614e93565b604082019050919050565b6000614612602283614b0a565b915061461d82614ee2565b604082019050919050565b6000614635601b83614b0a565b915061464082614f31565b602082019050919050565b6000614658601b83614b0a565b915061466382614f5a565b602082019050919050565b600061467b601f83614b0a565b915061468682614f83565b602082019050919050565b600061469e602883614b0a565b91506146a982614fac565b604082019050919050565b60006146c1602183614b0a565b91506146cc82614ffb565b604082019050919050565b60006146e4602083614b0a565b91506146ef8261504a565b602082019050919050565b6000614707602983614b0a565b915061471282615073565b604082019050919050565b600061472a602583614b0a565b9150614735826150c2565b604082019050919050565b600061474d602483614b0a565b915061475882615111565b604082019050919050565b6000614770601f83614b0a565b915061477b82615160565b602082019050919050565b6000614793601f83614b0a565b915061479e82615189565b602082019050919050565b60006147b6602c83614b0a565b91506147c1826151b2565b604082019050919050565b60006147d9602383614b0a565b91506147e482615201565b604082019050919050565b6147f881614c6e565b82525050565b61480781614c78565b82525050565b60006020820190506148226000830184614536565b92915050565b600060408201905061483d6000830185614536565b61484a60208301846147ef565b9392505050565b60006020820190506148666000830184614545565b92915050565b60006020820190506148816000830184614554565b92915050565b600060208201905081810360008301526148a18184614563565b905092915050565b600060208201905081810360008301526148c28161459c565b9050919050565b600060208201905081810360008301526148e2816145bf565b9050919050565b60006020820190508181036000830152614902816145e2565b9050919050565b6000602082019050818103600083015261492281614605565b9050919050565b6000602082019050818103600083015261494281614628565b9050919050565b600060208201905081810360008301526149628161464b565b9050919050565b600060208201905081810360008301526149828161466e565b9050919050565b600060208201905081810360008301526149a281614691565b9050919050565b600060208201905081810360008301526149c2816146b4565b9050919050565b600060208201905081810360008301526149e2816146d7565b9050919050565b60006020820190508181036000830152614a02816146fa565b9050919050565b60006020820190508181036000830152614a228161471d565b9050919050565b60006020820190508181036000830152614a4281614740565b9050919050565b60006020820190508181036000830152614a6281614763565b9050919050565b60006020820190508181036000830152614a8281614786565b9050919050565b60006020820190508181036000830152614aa2816147a9565b9050919050565b60006020820190508181036000830152614ac2816147cc565b9050919050565b6000602082019050614ade60008301846147ef565b92915050565b6000602082019050614af960008301846147fe565b92915050565b600081519050919050565b600082825260208201905092915050565b6000614b2682614c6e565b9150614b3183614c6e565b9250827fffffffffffffffffffffffffffffffffffffffffffffffffffffffffffffffff03821115614b6657614b65614d57565b5b828201905092915050565b6000614b7c82614c6e565b9150614b8783614c6e565b925082614b9757614b96614d86565b5b828204905092915050565b6000614bad82614c6e565b9150614bb883614c6e565b9250817fffffffffffffffffffffffffffffffffffffffffffffffffffffffffffffffff0483118215151615614bf157614bf0614d57565b5b828202905092915050565b6000614c0782614c6e565b9150614c1283614c6e565b925082821015614c2557614c24614d57565b5b828203905092915050565b6000614c3b82614c4e565b9050919050565b60008115159050919050565b600073ffffffffffffffffffffffffffffffffffffffff82169050919050565b6000819050919050565b600060ff82169050919050565b6000614c9082614c97565b9050919050565b6000614ca282614c4e565b9050919050565b60005b83811015614cc7578082015181840152602081019050614cac565b83811115614cd6576000848401525b50505050565b60006002820490506001821680614cf457607f821691505b60208210811415614d0857614d07614db5565b5b50919050565b6000614d1982614c6e565b91507fffffffffffffffffffffffffffffffffffffffffffffffffffffffffffffffff821415614d4c57614d4b614d57565b5b600182019050919050565b7f4e487b7100000000000000000000000000000000000000000000000000000000600052601160045260246000fd5b7f4e487b7100000000000000000000000000000000000000000000000000000000600052601260045260246000fd5b7f4e487b7100000000000000000000000000000000000000000000000000000000600052602260045260246000fd5b6000601f19601f8301169050919050565b7f45524332303a207472616e7366657220746f20746865207a65726f206164647260008201527f6573730000000000000000000000000000000000000000000000000000000000602082015250565b7f416d6f756e74206d757374206265206c657373207468616e20746f74616c207260008201527f65666c656374696f6e7300000000000000000000000000000000000000000000602082015250565b7f4f776e61626c653a206e6577206f776e657220697320746865207a65726f206160008201527f6464726573730000000000000000000000000000000000000000000000000000602082015250565b7f45524332303a20617070726f766520746f20746865207a65726f20616464726560008201527f7373000000000000000000000000000000000000000000000000000000000000602082015250565b7f536166654d6174683a206164646974696f6e206f766572666c6f770000000000600082015250565b7f4163636f756e7420697320616c7265616479206578636c756465640000000000600082015250565b7f416d6f756e74206d757374206265206c657373207468616e20737570706c7900600082015250565b7f5472616e7366657220616d6f756e74206578636565647320746865206d61785460008201527f78416d6f756e742e000000000000000000000000000000000000000000000000602082015250565b7f536166654d6174683a206d756c7469706c69636174696f6e206f766572666c6f60008201527f7700000000000000000000000000000000000000000000000000000000000000602082015250565b7f4f776e61626c653a2063616c6c6572206973206e6f7420746865206f776e6572600082015250565b7f5472616e7366657220616d6f756e74206d75737420626520677265617465722060008201527f7468616e207a65726f0000000000000000000000000000000000000000000000602082015250565b7f45524332303a207472616e736665722066726f6d20746865207a65726f20616460008201527f6472657373000000000000000000000000000000000000000000000000000000602082015250565b7f45524332303a20617070726f76652066726f6d20746865207a65726f2061646460008201527f7265737300000000000000000000000000000000000000000000000000000000602082015250565b7f436f6e7472616374206973206c6f636b656420756e74696c2037206461797300600082015250565b7f5265656e7472616e637947756172643a207265656e7472616e742063616c6c00600082015250565b7f4578636c75646564206164647265737365732063616e6e6f742063616c6c207460008201527f6869732066756e6374696f6e0000000000000000000000000000000000000000602082015250565b7f596f7520646f6e27742068617665207065726d697373696f6e20746f20756e6c60008201527f6f636b0000000000000000000000000000000000000000000000000000000000602082015250565b61525981614c30565b811461526457600080fd5b50565b61527081614c42565b811461527b57600080fd5b50565b61528781614c6e565b811461529257600080fd5b5056fe45524332303a207472616e7366657220616d6f756e74206578636565647320616c6c6f77616e636545524332303a2064656372656173656420616c6c6f77616e63652062656c6f77207a65726fa26469706673582212209cb97e5ac956900c58ba87413d89667bc4807ea916668b61350c6d65abadfbb364736f6c63430008040033",
  "immutableReferences": {
    "1500": [
      {
        "length": 32,
        "start": 2521
      }
    ],
    "1502": [
      {
        "length": 32,
        "start": 5438
      }
    ]
  },
  "source": "\npragma solidity ^0.8.0;\n// SPDX-License-Identifier: Unlicensed\n\ninterface IERC20 {\n\tfunction totalSupply() external view returns (uint256);\n\tfunction balanceOf(address account) external view returns (uint256);\n\tfunction transfer(address recipient, uint256 amount) external returns (bool);\n\tfunction allowance(address owner, address spender) external view returns (uint256);\n\tfunction approve(address spender, uint256 amount) external returns (bool);\n\tfunction transferFrom(address sender, address recipient, uint256 amount) external returns (bool);\n\tevent Transfer(address indexed from, address indexed to, uint256 value);\n\tevent Approval(address indexed owner, address indexed spender, uint256 value);\n}\n\nabstract contract ReentrancyGuard {\n    uint256 private constant _NOT_ENTERED = 1;\n    uint256 private constant _ENTERED = 2;\n    uint256 private _status;\n    constructor () {\n        _status = _NOT_ENTERED;\n    }\n\n    modifier nonReentrant() {\n        require(_status != _ENTERED, \"ReentrancyGuard: reentrant call\");\n        _status = _ENTERED;\n        _;\n        _status = _NOT_ENTERED;\n    }\n}\n\nlibrary SafeMath {\n\tfunction add(uint256 a, uint256 b) internal pure returns (uint256) {uint256 c = a + b; require(c >= a, \"SafeMath: addition overflow\"); return c;}\t\n\tfunction sub(uint256 a, uint256 b) internal pure returns (uint256) {return sub(a, b, \"SafeMath: subtraction overflow\");}\n\tfunction sub(uint256 a, uint256 b, string memory errorMessage) internal pure returns (uint256) {require(b <= a, errorMessage);uint256 c = a - b;return c;}\n\tfunction mul(uint256 a, uint256 b) internal pure returns (uint256) {if (a == 0) {return 0;}uint256 c = a * b;require(c / a == b, \"SafeMath: multiplication overflow\");return c;}\n\tfunction div(uint256 a, uint256 b) internal pure returns (uint256) {return div(a, b, \"SafeMath: division by zero\");}\n\tfunction div(uint256 a, uint256 b, string memory errorMessage) internal pure returns (uint256) {require(b > 0, errorMessage);uint256 c = a / b;return c;}\n\tfunction mod(uint256 a, uint256 b) internal pure returns (uint256) {return mod(a, b, \"SafeMath: modulo by zero\");}\n\tfunction mod(uint256 a, uint256 b, string memory errorMessage) internal pure returns (uint256) {require(b != 0, errorMessage);return a % b;}\n}\n\nabstract contract Context {\n\tfunction _msgSender() internal view virtual returns (address) {return msg.sender;}\n\tfunction _msgData() internal view virtual returns (bytes memory) {this;return msg.data;}\n}\n\nlibrary Address {\n\t\n\tfunction isContract(address account) internal view returns (bool) {\n\t\tbytes32 codehash;\n\t\tbytes32 accountHash = 0xc5d2460186f7233c927e7db2dcc703c0e500b653ca82273b7bfad8045d85a470;\n\t\t// solhint-disable-next-line no-inline-assembly\n\t\tassembly { codehash := extcodehash(account) }\n\t\treturn (codehash != accountHash && codehash != 0x0);\n\t}\n\n\tfunction sendValue(address payable recipient, uint256 amount) internal {\n\t\trequire(address(this).balance >= amount, \"Address: insufficient balance\");\n\t\t// solhint-disable-next-line avoid-low-level-calls, avoid-call-value\n\t\t(bool success, ) = recipient.call{ value: amount }(\"\");\n\t\trequire(success, \"Address: unable to send value, recipient may have reverted\");\n\t}\n\n\tfunction functionCall(address target, bytes memory data) internal returns (bytes memory) {\n\t  return functionCall(target, data, \"Address: low-level call failed\");\n\t}\n\n\tfunction functionCall(address target, bytes memory data, string memory errorMessage) internal returns (bytes memory) {\n\t\treturn _functionCallWithValue(target, data, 0, errorMessage);\n\t}\n\n\tfunction functionCallWithValue(address target, bytes memory data, uint256 value) internal returns (bytes memory) {\n\t\treturn functionCallWithValue(target, data, value, \"Address: low-level call with value failed\");\n\t}\n\n\tfunction functionCallWithValue(address target, bytes memory data, uint256 value, string memory errorMessage) internal returns (bytes memory) {\n\t\trequire(address(this).balance >= value, \"Address: insufficient balance for call\");\n\t\treturn _functionCallWithValue(target, data, value, errorMessage);\n\t}\n\n\tfunction _functionCallWithValue(address target, bytes memory data, uint256 weiValue, string memory errorMessage) private returns (bytes memory) {\n\t\trequire(isContract(target), \"Address: call to non-contract\");\n\t\t// solhint-disable-next-line avoid-low-level-calls\n\t\t(bool success, bytes memory returndata) = target.call{ value: weiValue }(data);\n\t\tif (success) {\n\t\t\treturn returndata;\n\t\t} else {\n\t\t\tif (returndata.length > 0) {\n\t\t\t\t// solhint-disable-next-line no-inline-assembly\n\t\t\t\tassembly {\n\t\t\t\t\tlet returndata_size := mload(returndata)\n\t\t\t\t\trevert(add(32, returndata), returndata_size)\n\t\t\t\t}\n\t\t\t} else {\n\t\t\t\trevert(errorMessage);\n\t\t\t}\n\t\t}\n\t}\n}\n\ncontract Ownable is Context {\n\taddress private _owner;\n\taddress private _previousOwner;\n\tuint256 private _lockTime;\n\tevent OwnershipTransferred(address indexed previousOwner, address indexed newOwner);\n\tconstructor () {\n\t\taddress msgSender = _msgSender();\n\t\t_owner = msgSender;\n\t\temit OwnershipTransferred(address(0), msgSender);\n\t}\n\tfunction owner() public view returns (address) {return _owner;}\n\tmodifier onlyOwner() {require(_owner == _msgSender(), \"Ownable: caller is not the owner\");_;}\n\tfunction renounceOwnership() public virtual onlyOwner {emit OwnershipTransferred(_owner, address(0)); _owner = address(0);}\n\tfunction transferOwnership(address newOwner) public virtual onlyOwner {\n\t\trequire(newOwner != address(0), \"Ownable: new owner is the zero address\");\n\t\temit OwnershipTransferred(_owner, newOwner);\n\t\t_owner = newOwner;\n\t}\n\tfunction geUnlockTime() public view returns (uint256) {return _lockTime;}\n\tfunction lock(uint256 time) public virtual onlyOwner {\n\t\t_previousOwner = _owner;\n\t\t_owner = address(0);\n\t\t_lockTime = block.timestamp + time;\n\t\temit OwnershipTransferred(_owner, address(0));\n\t}\n\t\n\tfunction unlock() public virtual {\n\t\trequire(_previousOwner == msg.sender, \"You don't have permission to unlock\");\n\t\trequire(block.timestamp > _lockTime , \"Contract is locked until 7 days\");\n\t\temit OwnershipTransferred(_owner, _previousOwner);\n\t\t_owner = _previousOwner;\n\t}\n}\n\ninterface IUniswapV2Factory {\n\tevent PairCreated(address indexed token0, address indexed token1, address pair, uint);\n\tfunction feeTo() external view returns (address);\n\tfunction feeToSetter() external view returns (address);\n\tfunction getPair(address tokenA, address tokenB) external view returns (address pair);\n\tfunction allPairs(uint) external view returns (address pair);\n\tfunction allPairsLength() external view returns (uint);\n\tfunction createPair(address tokenA, address tokenB) external returns (address pair);\n\tfunction setFeeTo(address) external;\n\tfunction setFeeToSetter(address) external;\n}\n\ninterface IUniswapV2Pair {\n\tevent Approval(address indexed owner, address indexed spender, uint value);\n\tevent Transfer(address indexed from, address indexed to, uint value);\n\tfunction name() external pure returns (string memory);\n\tfunction symbol() external pure returns (string memory);\n\tfunction decimals() external pure returns (uint8);\n\tfunction totalSupply() external view returns (uint);\n\tfunction balanceOf(address owner) external view returns (uint);\n\tfunction allowance(address owner, address spender) external view returns (uint);\n\tfunction approve(address spender, uint value) external returns (bool);\n\tfunction transfer(address to, uint value) external returns (bool);\n\tfunction transferFrom(address from, address to, uint value) external returns (bool);\n\tfunction DOMAIN_SEPARATOR() external view returns (bytes32);\n\tfunction PERMIT_TYPEHASH() external pure returns (bytes32);\n\tfunction nonces(address owner) external view returns (uint);\n\tfunction permit(address owner, address spender, uint value, uint deadline, uint8 v, bytes32 r, bytes32 s) external;\n\tevent Mint(address indexed sender, uint amount0, uint amount1);\n\tevent Burn(address indexed sender, uint amount0, uint amount1, address indexed to);\n\tevent Swap(address indexed sender, uint amount0In, uint amount1In, uint amount0Out, uint amount1Out, address indexed to);\n\tevent Sync(uint112 reserve0, uint112 reserve1);\n\tfunction MINIMUM_LIQUIDITY() external pure returns (uint);\n\tfunction factory() external view returns (address);\n\tfunction token0() external view returns (address);\n\tfunction token1() external view returns (address);\n\tfunction getReserves() external view returns (uint112 reserve0, uint112 reserve1, uint32 blockTimestampLast);\n\tfunction price0CumulativeLast() external view returns (uint);\n\tfunction price1CumulativeLast() external view returns (uint);\n\tfunction kLast() external view returns (uint);\n\tfunction mint(address to) external returns (uint liquidity);\n\tfunction burn(address to) external returns (uint amount0, uint amount1);\n\tfunction swap(uint amount0Out, uint amount1Out, address to, bytes calldata data) external;\n\tfunction skim(address to) external;\n\tfunction sync() external;\n\tfunction initialize(address, address) external;\n}\n\ninterface IUniswapV2Router01 {\n\tfunction factory() external pure returns (address);\n\tfunction WETH() external pure returns (address);\n\tfunction addLiquidity( address tokenA, address tokenB, uint amountADesired, uint amountBDesired, uint amountAMin, uint amountBMin, address to, uint deadline\n\t) external returns (uint amountA, uint amountB, uint liquidity);\n\tfunction addLiquidityETH( address token, uint amountTokenDesired, uint amountTokenMin, uint amountETHMin, address to, uint deadline\n\t) external payable returns (uint amountToken, uint amountETH, uint liquidity);\n\tfunction removeLiquidity( address tokenA, address tokenB, uint liquidity, uint amountAMin, uint amountBMin, address to, uint deadline\n\t) external returns (uint amountA, uint amountB);\n\tfunction removeLiquidityETH( address token, uint liquidity, uint amountTokenMin, uint amountETHMin, address to, uint deadline\n\t) external returns (uint amountToken, uint amountETH);\n\tfunction removeLiquidityWithPermit( address tokenA, address tokenB, uint liquidity, uint amountAMin, uint amountBMin, address to, uint deadline, bool approveMax, uint8 v, bytes32 r, bytes32 s\n\t) external returns (uint amountA, uint amountB);\n\tfunction removeLiquidityETHWithPermit( address token, uint liquidity, uint amountTokenMin, uint amountETHMin, address to, uint deadline, bool approveMax, uint8 v, bytes32 r, bytes32 s\n\t) external returns (uint amountToken, uint amountETH);\n\tfunction swapExactTokensForTokens( uint amountIn, uint amountOutMin, address[] calldata path, address to, uint deadline\n\t) external returns (uint[] memory amounts);\n\tfunction swapTokensForExactTokens( uint amountOut, uint amountInMax, address[] calldata path, address to, uint deadline\n\t) external returns (uint[] memory amounts);\n\tfunction swapExactETHForTokens(uint amountOutMin, address[] calldata path, address to, uint deadline) external payable returns (uint[] memory amounts);\n\tfunction swapTokensForExactETH(uint amountOut, uint amountInMax, address[] calldata path, address to, uint deadline) external returns (uint[] memory amounts);\n\tfunction swapExactTokensForETH(uint amountIn, uint amountOutMin, address[] calldata path, address to, uint deadline) external returns (uint[] memory amounts);\n\tfunction swapETHForExactTokens(uint amountOut, address[] calldata path, address to, uint deadline) external payable returns (uint[] memory amounts);\n\tfunction quote(uint amountA, uint reserveA, uint reserveB) external pure returns (uint amountB);\n\tfunction getAmountOut(uint amountIn, uint reserveIn, uint reserveOut) external pure returns (uint amountOut);\n\tfunction getAmountIn(uint amountOut, uint reserveIn, uint reserveOut) external pure returns (uint amountIn);\n\tfunction getAmountsOut(uint amountIn, address[] calldata path) external view returns (uint[] memory amounts);\n\tfunction getAmountsIn(uint amountOut, address[] calldata path) external view returns (uint[] memory amounts);\n}\n\ninterface IUniswapV2Router02 is IUniswapV2Router01 {\n\tfunction removeLiquidityETHSupportingFeeOnTransferTokens( address token, uint liquidity, uint amountTokenMin, uint amountETHMin, address to, uint deadline\n\t) external returns (uint amountETH);\n\tfunction removeLiquidityETHWithPermitSupportingFeeOnTransferTokens( address token, uint liquidity, uint amountTokenMin, uint amountETHMin, address to, uint deadline, bool approveMax, uint8 v, bytes32 r, bytes32 s\n\t) external returns (uint amountETH);\n\tfunction swapExactTokensForTokensSupportingFeeOnTransferTokens( uint amountIn, uint amountOutMin, address[] calldata path, address to, uint deadline\n\t) external;\n\tfunction swapExactETHForTokensSupportingFeeOnTransferTokens( uint amountOutMin, address[] calldata path, address to, uint deadline\n\t) external payable;\n\tfunction swapExactTokensForETHSupportingFeeOnTransferTokens( uint amountIn, uint amountOutMin, address[] calldata path, address to, uint deadline\n\t) external;\n}\n\ncontract NotSafeMoon is Context, IERC20, Ownable, ReentrancyGuard {\n\tusing SafeMath for uint256;\n\tusing Address for address;\n\n\tmapping (address => uint256) private _rOwned;\n\tmapping (address => uint256) private _tOwned;\n\tmapping (address => mapping (address => uint256)) private _allowances;\n\n\tmapping (address => bool) private _isExcludedFromFee;\n\tmapping (address => bool) private _isExcludedFromReward;\n\taddress[] private _excludedFromReward;\n\n\taddress BURN_ADDRESS = 0x0000000000000000000000000000000000000001;\n\t\n\tuint256 private constant MAX = ~uint256(0);\n\tuint256 private _tTotal = 1000000000 * 10**6 * 10**9;\n\tuint256 private _rTotal = (MAX - (MAX % _tTotal));\n\tuint256 private _tHODLrRewardsTotal;\n\n\tstring private _name = \"NotSafeMoon\";\n\tstring private _symbol = \"NOTSAFEMOON\";\n\tuint8 private _decimals = 9;\n\t\n\tuint256 public _rewardFee = 6;\n\tuint256 private _previousRewardFee = _rewardFee;\n\t\n\tuint256 public _burnFee = 2;\n\tuint256 private _previousBurnFee = _burnFee;\n\n\tIUniswapV2Router02 public immutable uniswapV2Router;\n\taddress public immutable uniswapV2Pair;\n\tuint256 public _maxTxAmount = 5000000 * 10**6 * 10**9;\n\n\tevent TransferBurn(address indexed from, address indexed burnAddress, uint256 value);\n\n\tconstructor () {\n\t\t_rOwned[_msgSender()] = _rTotal;\n\t\tIUniswapV2Router02 _uniswapV2Router = IUniswapV2Router02(0xD99D1c33F9fC3444f8101754aBC46c52416550D1);\t\t// binance PANCAKE V2\n\t\t//IUniswapV2Router02 _uniswapV2Router = IUniswapV2Router02(0x05fF2B0DB69458A0750badebc4f9e13aDd608C7F);\t\t// binance PANCAKE V1\n\t\t//IUniswapV2Router02 _uniswapV2Router = IUniswapV2Router02(0x7a250d5630B4cF539739dF2C5dAcb4c659F2488D);\t\t// Ethereum mainnet, Ropsten, Rinkeby, Grli, and Kovan\t\t \n\t\tuniswapV2Pair = IUniswapV2Factory(_uniswapV2Router.factory()).createPair(address(this), _uniswapV2Router.WETH());\n\t\tuniswapV2Router = _uniswapV2Router;\n\t\t_isExcludedFromFee[owner()] = true;\n\t\t_isExcludedFromFee[address(this)] = true;\n\t\t_isExcludedFromReward[address(this)] = true;\n\t\t_isExcludedFromFee[BURN_ADDRESS] = true;\n\t\t_isExcludedFromReward[BURN_ADDRESS] = true;\n\t\temit Transfer(address(0), _msgSender(), _tTotal);\n\t}\n\n\tfunction name() public view returns (string memory) {return _name;}\n\tfunction symbol() public view returns (string memory) {return _symbol;}\n\tfunction decimals() public view returns (uint8) {return _decimals;}\n\tfunction totalSupply() public view override returns (uint256) {return _tTotal;}\n\n\tfunction balanceOf(address account) public view override returns (uint256) {\n\t\tif (_isExcludedFromReward[account]) return _tOwned[account];\n\t\treturn tokenFromReflection(_rOwned[account]);\n\t}\n\n\tfunction withdraw() external onlyOwner nonReentrant{\n\t\tuint256 balance = IERC20(address(this)).balanceOf(address(this));\n\t\tIERC20(address(this)).transfer(msg.sender, balance);\n\t\tpayable(msg.sender).transfer(address(this).balance);\n\t}\n\n\tfunction transfer(address recipient, uint256 amount) public override returns (bool) {\n\t\t_transfer(_msgSender(), recipient, amount);\n\t\treturn true;\n\t}\n\n\tfunction allowance(address owner, address spender) public view override returns (uint256) {\n\t\treturn _allowances[owner][spender];\n\t}\n\n\tfunction approve(address spender, uint256 amount) public override returns (bool) {\n\t\t_approve(_msgSender(), spender, amount);\n\t\treturn true;\n\t}\n\n\tfunction transferFrom(address sender, address recipient, uint256 amount) public override returns (bool) {\n\t\t_transfer(sender, recipient, amount);\n\t\t_approve(sender, _msgSender(), _allowances[sender][_msgSender()].sub(amount, \"ERC20: transfer amount exceeds allowance\"));\n\t\treturn true;\n\t}\n\n\tfunction increaseAllowance(address spender, uint256 addedValue) public virtual returns (bool) {\n\t\t_approve(_msgSender(), spender, _allowances[_msgSender()][spender].add(addedValue));\n\t\treturn true;\n\t}\n\n\tfunction decreaseAllowance(address spender, uint256 subtractedValue) public virtual returns (bool) {\n\t\t_approve(_msgSender(), spender, _allowances[_msgSender()][spender].sub(subtractedValue, \"ERC20: decreased allowance below zero\"));\n\t\treturn true;\n\t}\n\n\tfunction totalHODLrRewards() public view returns (uint256) {\n\t\treturn _tHODLrRewardsTotal;\n\t}\n\n\tfunction totalBurned() public view returns (uint256) {\n\t\treturn balanceOf(BURN_ADDRESS);\n\t}\n\n\tfunction deliver(uint256 tAmount) public {\n\t\taddress sender = _msgSender();\n\t\trequire(!_isExcludedFromReward[sender], \"Excluded addresses cannot call this function\");\n\t\t(uint256 rAmount,,,,,) = _getValues(tAmount);\n\t\t_rOwned[sender] = _rOwned[sender].sub(rAmount);\n\t\t_rTotal = _rTotal.sub(rAmount);\n\t\t_tHODLrRewardsTotal = _tHODLrRewardsTotal.add(tAmount);\n\t}\n\n\tfunction reflectionFromToken(uint256 tAmount, bool deductTransferFee) public view returns(uint256) {\n\t\trequire(tAmount <= _tTotal, \"Amount must be less than supply\");\n\t\tif (!deductTransferFee) {\n\t\t\t(uint256 rAmount,,,,,) = _getValues(tAmount);\n\t\t\treturn rAmount;\n\t\t} else {\n\t\t\t(,uint256 rTransferAmount,,,,) = _getValues(tAmount);\n\t\t\treturn rTransferAmount;\n\t\t}\n\t}\n\n\tfunction tokenFromReflection(uint256 rAmount) public view returns(uint256) {\n\t\trequire(rAmount <= _rTotal, \"Amount must be less than total reflections\");\n\t\tuint256 currentRate =  _getRate();\n\t\treturn rAmount.div(currentRate);\n\t}\n\n\tfunction isExcludedFromReward(address account) public view returns (bool) {\n\t\treturn _isExcludedFromReward[account];\n\t}\n\n\tfunction excludeFromReward(address account) public onlyOwner {\n\t\trequire(!_isExcludedFromReward[account], \"Account is already excluded\");\n\t\tif(_rOwned[account] > 0) {\n\t\t\t_tOwned[account] = tokenFromReflection(_rOwned[account]);\n\t\t}\n\t\t_isExcludedFromReward[account] = true;\n\t\t_excludedFromReward.push(account);\n\t}\n\n\tfunction includeInReward(address account) external onlyOwner {\n\t\trequire(_isExcludedFromReward[account], \"Account is already excluded\");\n\t\tfor (uint256 i = 0; i < _excludedFromReward.length; i++) {\n\t\t\tif (_excludedFromReward[i] == account) {\n\t\t\t\t_excludedFromReward[i] = _excludedFromReward[_excludedFromReward.length - 1];\n\t\t\t\t_tOwned[account] = 0;\n\t\t\t\t_isExcludedFromReward[account] = false;\n\t\t\t\t_excludedFromReward.pop();\n\t\t\t\tbreak;\n\t\t\t}\n\t\t}\n\t}\n\n\tfunction excludeFromFee(address account) public onlyOwner {\n\t\t_isExcludedFromFee[account] = true;\n\t}\n\t\n\tfunction includeInFee(address account) public onlyOwner {\n\t\t_isExcludedFromFee[account] = false;\n\t}\n\t\n\tfunction setRewardFeePercent(uint256 rewardFee) external onlyOwner {\n\t\t_rewardFee = rewardFee;\n\t}\n\t\n\tfunction setBurnFeePercent(uint256 burnFee) external onlyOwner {\n\t\t_burnFee = burnFee;\n\t}\n\t\n\tfunction setMaxTxPercent(uint256 maxTxPercent) external onlyOwner {\n\t\t_maxTxAmount = _tTotal.mul(maxTxPercent).div(\n\t\t\t10**2\n\t\t);\n\t}\n\n\treceive() external payable {}\n\n\tfunction _HODLrFee(uint256 rHODLrFee, uint256 tHODLrFee) private {\n\t\t_rTotal = _rTotal.sub(rHODLrFee);\n\t\t_tHODLrRewardsTotal = _tHODLrRewardsTotal.add(tHODLrFee);\n\t}\n\n\tfunction _getValues(uint256 tAmount) private view returns (uint256, uint256, uint256, uint256, uint256, uint256) {\n\t\t(uint256 tTransferAmount, uint256 tHODLrFee, uint256 tBurn) = _getTValues(tAmount);\n\t\t(uint256 rAmount, uint256 rTransferAmount, uint256 rHODLrFee) = _getRValues(tAmount, tHODLrFee, tBurn, _getRate());\n\t\treturn (rAmount, rTransferAmount, rHODLrFee, tTransferAmount, tHODLrFee, tBurn);\n\t}\n\n\tfunction _getTValues(uint256 tAmount) private view returns (uint256, uint256, uint256) {\n\t\tuint256 tHODLrFee = calculateRewardFee(tAmount);\n\t\tuint256 tBurn = calculateBurnFee(tAmount);\n\t\tuint256 tTransferAmount = tAmount.sub(tHODLrFee).sub(tBurn);\n\t\treturn (tTransferAmount, tHODLrFee, tBurn);\n\t}\n\n\tfunction _getRValues(uint256 tAmount, uint256 tHODLrFee, uint256 tBurn, uint256 currentRate) private pure returns (uint256, uint256, uint256) {\n\t\tuint256 rAmount = tAmount.mul(currentRate);\n\t\tuint256 rHODLrFee = tHODLrFee.mul(currentRate);\n\t\tuint256 rBurn = tBurn.mul(currentRate);\n\t\tuint256 rTransferAmount = rAmount.sub(rHODLrFee).sub(rBurn);\n\t\treturn (rAmount, rTransferAmount, rHODLrFee);\n\t}\n\n\tfunction _getRate() private view returns(uint256) {\n\t\t(uint256 rSupply, uint256 tSupply) = _getCurrentSupply();\n\t\treturn rSupply.div(tSupply);\n\t}\n\n\tfunction _getCurrentSupply() private view returns(uint256, uint256) {\n\t\tuint256 rSupply = _rTotal;\n\t\tuint256 tSupply = _tTotal;\n\t\tfor (uint256 i = 0; i < _excludedFromReward.length; i++) {\n\t\t\tif (_rOwned[_excludedFromReward[i]] > rSupply || _tOwned[_excludedFromReward[i]] > tSupply) return (_rTotal, _tTotal);\n\t\t\trSupply = rSupply.sub(_rOwned[_excludedFromReward[i]]);\n\t\t\ttSupply = tSupply.sub(_tOwned[_excludedFromReward[i]]);\n\t\t}\n\t\tif (rSupply < _rTotal.div(_tTotal)) return (_rTotal, _tTotal);\n\t\treturn (rSupply, tSupply);\n\t}\n\t\n\n\t\n\tfunction calculateRewardFee(uint256 _amount) private view returns (uint256) {\n\t\treturn _amount.mul(_rewardFee).div(\n\t\t\t10**2\n\t\t);\n\t}\n\n\tfunction calculateBurnFee(uint256 _amount) private view returns (uint256) {\n\t\treturn _amount.mul(_burnFee).div(\n\t\t\t10**2\n\t\t);\n\t}\n\t\n\tfunction removeAllFee() private {\n\t\tif(_rewardFee == 0 && _burnFee == 0) return;\t\t\n\t\t_previousRewardFee = _rewardFee;\n\t\t_previousBurnFee = _burnFee;\t\t\n\t\t_rewardFee = 0;\n\t\t_burnFee = 0;\n\t}\n\t\n\tfunction restoreAllFee() private {\n\t\t_rewardFee = _previousRewardFee;\n\t\t_burnFee = _previousBurnFee;\n\t}\n\t\n\tfunction isExcludedFromFee(address account) public view returns(bool) {\n\t\treturn _isExcludedFromFee[account];\n\t}\n\n\tfunction _approve(address owner, address spender, uint256 amount) private {\n\t\trequire(owner != address(0), \"ERC20: approve from the zero address\");\n\t\trequire(spender != address(0), \"ERC20: approve to the zero address\");\n\t\t_allowances[owner][spender] = amount;\n\t\temit Approval(owner, spender, amount);\n\t}\n\n\tfunction _transfer(\n\t\taddress from,\n\t\taddress to,\n\t\tuint256 amount\n\t) private {\n\t\trequire(from != address(0), \"ERC20: transfer from the zero address\");\n\t\trequire(to != address(0), \"ERC20: transfer to the zero address\");\n\t\trequire(amount > 0, \"Transfer amount must be greater than zero\");\n\t\tif(from != owner() && to != owner())\n\t\t\trequire(amount <= _maxTxAmount, \"Transfer amount exceeds the maxTxAmount.\");\n\t\tbool takeFee = true;\n\t\tif(_isExcludedFromFee[from] || _isExcludedFromFee[to]){\n\t\t\ttakeFee = false;\n\t\t}\n\t\t_tokenTransfer(from,to,amount,takeFee);\n\t}\n\tfunction _tokenTransfer(address sender, address recipient, uint256 amount,bool takeFee) private {\n\t\tif(!takeFee)\n\t\t\tremoveAllFee();\t\t\n\t\tif (_isExcludedFromReward[sender] && !_isExcludedFromReward[recipient]) {\n\t\t\t_transferFromExcluded(sender, recipient, amount);\n\t\t} else if (!_isExcludedFromReward[sender] && _isExcludedFromReward[recipient]) {\n\t\t\t_transferToExcluded(sender, recipient, amount);\n\t\t} else if (!_isExcludedFromReward[sender] && !_isExcludedFromReward[recipient]) {\n\t\t\t_transferStandard(sender, recipient, amount);\n\t\t} else if (_isExcludedFromReward[sender] && _isExcludedFromReward[recipient]) {\n\t\t\t_transferBothExcluded(sender, recipient, amount);\n\t\t} else {\n\t\t\t_transferStandard(sender, recipient, amount);\n\t\t}\t\t\n\t\tif(!takeFee)\n\t\t\trestoreAllFee();\n\t}\n\n\tfunction _transferBurn(uint256 tBurn) private {\n\t\tuint256 currentRate = _getRate();\n\t\tuint256 rBurn = tBurn.mul(currentRate);\t\t\n\t\t_rOwned[BURN_ADDRESS] = _rOwned[BURN_ADDRESS].add(rBurn);\n\t\tif(_isExcludedFromReward[BURN_ADDRESS])\n\t\t\t_tOwned[BURN_ADDRESS] = _tOwned[BURN_ADDRESS].add(tBurn);\n\t}\n\n\tfunction _transferFromExcluded(address sender, address recipient, uint256 tAmount) private {\n\t\t(\n\t\t\tuint256 rAmount,\n\t\t\tuint256 rTransferAmount,\n\t\t\tuint256 rHODLrFee,\n\t\t\tuint256 tTransferAmount,\n\t\t\tuint256 tHODLrFee,\n\t\t\tuint256 tBurn\n\t\t) = _getValues(tAmount);\n\t\t_tOwned[sender] = _tOwned[sender].sub(tAmount);\n\t\t_rOwned[sender] = _rOwned[sender].sub(rAmount);\n\t\t_rOwned[recipient] = _rOwned[recipient].add(rTransferAmount);\n\t\t_transferBurn(tBurn);\n\t\t_HODLrFee(rHODLrFee, tHODLrFee);\n\t\temit TransferBurn(sender, BURN_ADDRESS, tBurn);\n\t\temit Transfer(sender, recipient, tTransferAmount);\n\t}\n\t\n\tfunction _transferToExcluded(address sender, address recipient, uint256 tAmount) private {\n\t\t(uint256 rAmount, uint256 rTransferAmount, uint256 rHODLrFee, uint256 tTransferAmount, uint256 tHODLrFee, uint256 tBurn) = _getValues(tAmount);\n\t\t_rOwned[sender] = _rOwned[sender].sub(rAmount);\n\t\t_tOwned[recipient] = _tOwned[recipient].add(tTransferAmount);\n\t\t_rOwned[recipient] = _rOwned[recipient].add(rTransferAmount);\n\t\t_transferBurn(tBurn);\n\t\t_HODLrFee(rHODLrFee, tHODLrFee);\t\t\n\t\temit TransferBurn(sender, BURN_ADDRESS, tBurn);\n\t\temit Transfer(sender, recipient, tTransferAmount);\n\t}\n\t\n\tfunction _transferStandard(address sender, address recipient, uint256 tAmount) private {\n\t\t(uint256 rAmount, uint256 rTransferAmount, uint256 rHODLrFee, uint256 tTransferAmount, uint256 tHODLrFee, uint256 tBurn) = _getValues(tAmount);\n\t\t_rOwned[sender] = _rOwned[sender].sub(rAmount);\n\t\t_rOwned[recipient] = _rOwned[recipient].add(rTransferAmount);\n\t\t_transferBurn(tBurn);\n\t\t_HODLrFee(rHODLrFee, tHODLrFee);\n\t\temit TransferBurn(sender, BURN_ADDRESS, tBurn);\n\t\temit Transfer(sender, recipient, tTransferAmount);\n\t}\n\n\tfunction _transferBothExcluded(address sender, address recipient, uint256 tAmount) private {\n\t\t(uint256 rAmount, uint256 rTransferAmount, uint256 rHODLrFee, uint256 tTransferAmount, uint256 tHODLrFee, uint256 tBurn) = _getValues(tAmount);\n\t\t_tOwned[sender] = _tOwned[sender].sub(tAmount);\n\t\t_rOwned[sender] = _rOwned[sender].sub(rAmount);\n\t\t_tOwned[recipient] = _tOwned[recipient].add(tTransferAmount);\n\t\t_rOwned[recipient] = _rOwned[recipient].add(rTransferAmount);\n\t\t_transferBurn(tBurn);\n\t\t_HODLrFee(rHODLrFee, tHODLrFee);\n\t\temit TransferBurn(sender, BURN_ADDRESS, tBurn);\n\t\temit Transfer(sender, recipient, tTransferAmount);\n\t}\n\n}\n",
  "sourcePath": "/Users/juan_baranda/Documents/solidity/NSFM/contracts/NSFM.sol",
  "compiler": {
    "name": "solc",
    "version": "0.8.4+commit.c7e474f2.Emscripten.clang"
  },
  "schemaVersion": "3.4.1",
  "updatedAt": "2021-06-17T17:16:02.542Z",
  "networkType": "ethereum",
  "devdoc": {
    "kind": "dev",
    "methods": {},
    "version": 1
  },
  "userdoc": {
    "kind": "user",
    "methods": {},
    "version": 1
  }
}